package keepkey

import (
	"encoding/hex"
	"fmt"
	"log"
	"math/big"
	"strings"
	"testing"

	"github.com/ethereum/go-ethereum/core/types"
	"github.com/ethereum/go-ethereum/ethclient"
)

//var Bin = "60806040523480156200001157600080fd5b506040518060400160405280600581526020017f4172656e610000000000000000000000000000000000000000000000000000008152506040518060400160405280600581526020017f4152454e4100000000000000000000000000000000000000000000000000000081525061053933838381600390805190602001906200009c9291906200023e565b508060049080519060200190620000b59291906200023e565b505050620000ca8183620000d460201b60201c565b505050506200048c565b600073ffffffffffffffffffffffffffffffffffffffff168273ffffffffffffffffffffffffffffffffffffffff16141562000147576040517f08c379a00000000000000000000000000000000000000000000000000000000081526004016200013e9062000341565b60405180910390fd5b6200015b600083836200023960201b60201c565b80600260008282546200016f919062000391565b92505081905550806000808473ffffffffffffffffffffffffffffffffffffffff1673ffffffffffffffffffffffffffffffffffffffff1681526020019081526020016000206000828254620001c6919062000391565b925050819055508173ffffffffffffffffffffffffffffffffffffffff16600073ffffffffffffffffffffffffffffffffffffffff167fddf252ad1be2c89b69c2b068fc378daa952ba7f163c4a11628f55a4df523b3ef836040516200022d919062000363565b60405180910390a35050565b505050565b8280546200024c90620003f8565b90600052602060002090601f016020900481019282620002705760008555620002bc565b82601f106200028b57805160ff1916838001178555620002bc565b82800160010185558215620002bc579182015b82811115620002bb5782518255916020019190600101906200029e565b5b509050620002cb9190620002cf565b5090565b5b80821115620002ea576000816000905550600101620002d0565b5090565b6000620002fd601f8362000380565b91507f45524332303a206d696e7420746f20746865207a65726f2061646472657373006000830152602082019050919050565b6200033b81620003ee565b82525050565b600060208201905081810360008301526200035c81620002ee565b9050919050565b60006020820190506200037a600083018462000330565b92915050565b600082825260208201905092915050565b60006200039e82620003ee565b9150620003ab83620003ee565b9250827fffffffffffffffffffffffffffffffffffffffffffffffffffffffffffffffff03821115620003e357620003e26200042e565b5b828201905092915050565b6000819050919050565b600060028204905060018216806200041157607f821691505b602082108114156200042857620004276200045d565b5b50919050565b7f4e487b7100000000000000000000000000000000000000000000000000000000600052601160045260246000fd5b7f4e487b7100000000000000000000000000000000000000000000000000000000600052602260045260246000fd5b611805806200049c6000396000f3fe608060405234801561001057600080fd5b50600436106100cf5760003560e01c806342966c681161008c57806395d89b411161006657806395d89b4114610226578063a457c2d714610244578063a9059cbb14610274578063dd62ed3e146102a4576100cf565b806342966c68146101be57806370a08231146101da57806379cc67901461020a576100cf565b806306fdde03146100d4578063095ea7b3146100f257806318160ddd1461012257806323b872dd14610140578063313ce56714610170578063395093511461018e575b600080fd5b6100dc6102d4565b6040516100e9919061143a565b60405180910390f35b61010c60048036038101906101079190610f58565b610366565b604051610119919061141f565b60405180910390f35b61012a610384565b604051610137919061159c565b60405180910390f35b61015a60048036038101906101559190610f09565b61038e565b604051610167919061141f565b60405180910390f35b61017861048f565b60405161018591906115b7565b60405180910390f35b6101a860048036038101906101a39190610f58565b610498565b6040516101b5919061141f565b60405180910390f35b6101d860048036038101906101d39190610f94565b610544565b005b6101f460048036038101906101ef9190610ea4565b610558565b604051610201919061159c565b60405180910390f35b610224600480360381019061021f9190610f58565b6105a0565b005b61022e610624565b60405161023b919061143a565b60405180910390f35b61025e60048036038101906102599190610f58565b6106b6565b60405161026b919061141f565b60405180910390f35b61028e60048036038101906102899190610f58565b6107aa565b60405161029b919061141f565b60405180910390f35b6102be60048036038101906102b99190610ecd565b6107c8565b6040516102cb919061159c565b60405180910390f35b6060600380546102e390611700565b80601f016020809104026020016040519081016040528092919081815260200182805461030f90611700565b801561035c5780601f106103315761010080835404028352916020019161035c565b820191906000526020600020905b81548152906001019060200180831161033f57829003601f168201915b5050505050905090565b600061037a61037361084f565b8484610857565b6001905092915050565b6000600254905090565b600061039b848484610a22565b6000600160008673ffffffffffffffffffffffffffffffffffffffff1673ffffffffffffffffffffffffffffffffffffffff16815260200190815260200160002060006103e661084f565b73ffffffffffffffffffffffffffffffffffffffff1673ffffffffffffffffffffffffffffffffffffffff16815260200190815260200160002054905082811015610466576040517f08c379a000000000000000000000000000000000000000000000000000000000815260040161045d906114dc565b60405180910390fd5b6104838561047261084f565b858461047e9190611644565b610857565b60019150509392505050565b60006012905090565b600061053a6104a561084f565b8484600160006104b361084f565b73ffffffffffffffffffffffffffffffffffffffff1673ffffffffffffffffffffffffffffffffffffffff16815260200190815260200160002060008873ffffffffffffffffffffffffffffffffffffffff1673ffffffffffffffffffffffffffffffffffffffff1681526020019081526020016000205461053591906115ee565b610857565b6001905092915050565b61055561054f61084f565b82610ca1565b50565b60008060008373ffffffffffffffffffffffffffffffffffffffff1673ffffffffffffffffffffffffffffffffffffffff168152602001908152602001600020549050919050565b60006105b3836105ae61084f565b6107c8565b9050818110156105f8576040517f08c379a00000000000000000000000000000000000000000000000000000000081526004016105ef906114fc565b60405180910390fd5b6106158361060461084f565b84846106109190611644565b610857565b61061f8383610ca1565b505050565b60606004805461063390611700565b80601f016020809104026020016040519081016040528092919081815260200182805461065f90611700565b80156106ac5780601f10610681576101008083540402835291602001916106ac565b820191906000526020600020905b81548152906001019060200180831161068f57829003601f168201915b5050505050905090565b600080600160006106c561084f565b73ffffffffffffffffffffffffffffffffffffffff1673ffffffffffffffffffffffffffffffffffffffff16815260200190815260200160002060008573ffffffffffffffffffffffffffffffffffffffff1673ffffffffffffffffffffffffffffffffffffffff16815260200190815260200160002054905082811015610782576040517f08c379a00000000000000000000000000000000000000000000000000000000081526004016107799061157c565b60405180910390fd5b61079f61078d61084f565b85858461079a9190611644565b610857565b600191505092915050565b60006107be6107b761084f565b8484610a22565b6001905092915050565b6000600160008473ffffffffffffffffffffffffffffffffffffffff1673ffffffffffffffffffffffffffffffffffffffff16815260200190815260200160002060008373ffffffffffffffffffffffffffffffffffffffff1673ffffffffffffffffffffffffffffffffffffffff16815260200190815260200160002054905092915050565b600033905090565b600073ffffffffffffffffffffffffffffffffffffffff168373ffffffffffffffffffffffffffffffffffffffff1614156108c7576040517f08c379a00000000000000000000000000000000000000000000000000000000081526004016108be9061155c565b60405180910390fd5b600073ffffffffffffffffffffffffffffffffffffffff168273ffffffffffffffffffffffffffffffffffffffff161415610937576040517f08c379a000000000000000000000000000000000000000000000000000000000815260040161092e9061149c565b60405180910390fd5b80600160008573ffffffffffffffffffffffffffffffffffffffff1673ffffffffffffffffffffffffffffffffffffffff16815260200190815260200160002060008473ffffffffffffffffffffffffffffffffffffffff1673ffffffffffffffffffffffffffffffffffffffff168152602001908152602001600020819055508173ffffffffffffffffffffffffffffffffffffffff168373ffffffffffffffffffffffffffffffffffffffff167f8c5be1e5ebec7d5bd14f71427d1e84f3dd0314c0f7b2291e5b200ac8c7c3b92583604051610a15919061159c565b60405180910390a3505050565b600073ffffffffffffffffffffffffffffffffffffffff168373ffffffffffffffffffffffffffffffffffffffff161415610a92576040517f08c379a0000000000000000000000000000000000000000000000000000000008152600401610a899061153c565b60405180910390fd5b600073ffffffffffffffffffffffffffffffffffffffff168273ffffffffffffffffffffffffffffffffffffffff161415610b02576040517f08c379a0000000000000000000000000000000000000000000000000000000008152600401610af99061145c565b60405180910390fd5b610b0d838383610e75565b60008060008573ffffffffffffffffffffffffffffffffffffffff1673ffffffffffffffffffffffffffffffffffffffff16815260200190815260200160002054905081811015610b93576040517f08c379a0000000000000000000000000000000000000000000000000000000008152600401610b8a906114bc565b60405180910390fd5b8181610b9f9190611644565b6000808673ffffffffffffffffffffffffffffffffffffffff1673ffffffffffffffffffffffffffffffffffffffff16815260200190815260200160002081905550816000808573ffffffffffffffffffffffffffffffffffffffff1673ffffffffffffffffffffffffffffffffffffffff1681526020019081526020016000206000828254610c2f91906115ee565b925050819055508273ffffffffffffffffffffffffffffffffffffffff168473ffffffffffffffffffffffffffffffffffffffff167fddf252ad1be2c89b69c2b068fc378daa952ba7f163c4a11628f55a4df523b3ef84604051610c93919061159c565b60405180910390a350505050565b600073ffffffffffffffffffffffffffffffffffffffff168273ffffffffffffffffffffffffffffffffffffffff161415610d11576040517f08c379a0000000000000000000000000000000000000000000000000000000008152600401610d089061151c565b60405180910390fd5b610d1d82600083610e75565b60008060008473ffffffffffffffffffffffffffffffffffffffff1673ffffffffffffffffffffffffffffffffffffffff16815260200190815260200160002054905081811015610da3576040517f08c379a0000000000000000000000000000000000000000000000000000000008152600401610d9a9061147c565b60405180910390fd5b8181610daf9190611644565b6000808573ffffffffffffffffffffffffffffffffffffffff1673ffffffffffffffffffffffffffffffffffffffff168152602001908152602001600020819055508160026000828254610e039190611644565b92505081905550600073ffffffffffffffffffffffffffffffffffffffff168373ffffffffffffffffffffffffffffffffffffffff167fddf252ad1be2c89b69c2b068fc378daa952ba7f163c4a11628f55a4df523b3ef84604051610e68919061159c565b60405180910390a3505050565b505050565b600081359050610e89816117a1565b92915050565b600081359050610e9e816117b8565b92915050565b600060208284031215610eb657600080fd5b6000610ec484828501610e7a565b91505092915050565b60008060408385031215610ee057600080fd5b6000610eee85828601610e7a565b9250506020610eff85828601610e7a565b9150509250929050565b600080600060608486031215610f1e57600080fd5b6000610f2c86828701610e7a565b9350506020610f3d86828701610e7a565b9250506040610f4e86828701610e8f565b9150509250925092565b60008060408385031215610f6b57600080fd5b6000610f7985828601610e7a565b9250506020610f8a85828601610e8f565b9150509250929050565b600060208284031215610fa657600080fd5b6000610fb484828501610e8f565b91505092915050565b610fc68161168a565b82525050565b6000610fd7826115d2565b610fe181856115dd565b9350610ff18185602086016116cd565b610ffa81611790565b840191505092915050565b60006110126023836115dd565b91507f45524332303a207472616e7366657220746f20746865207a65726f206164647260008301527f65737300000000000000000000000000000000000000000000000000000000006020830152604082019050919050565b60006110786022836115dd565b91507f45524332303a206275726e20616d6f756e7420657863656564732062616c616e60008301527f63650000000000000000000000000000000000000000000000000000000000006020830152604082019050919050565b60006110de6022836115dd565b91507f45524332303a20617070726f766520746f20746865207a65726f20616464726560008301527f73730000000000000000000000000000000000000000000000000000000000006020830152604082019050919050565b60006111446026836115dd565b91507f45524332303a207472616e7366657220616d6f756e742065786365656473206260008301527f616c616e636500000000000000000000000000000000000000000000000000006020830152604082019050919050565b60006111aa6028836115dd565b91507f45524332303a207472616e7366657220616d6f756e742065786365656473206160008301527f6c6c6f77616e63650000000000000000000000000000000000000000000000006020830152604082019050919050565b60006112106024836115dd565b91507f45524332303a206275726e20616d6f756e74206578636565647320616c6c6f7760008301527f616e6365000000000000000000000000000000000000000000000000000000006020830152604082019050919050565b60006112766021836115dd565b91507f45524332303a206275726e2066726f6d20746865207a65726f2061646472657360008301527f73000000000000000000000000000000000000000000000000000000000000006020830152604082019050919050565b60006112dc6025836115dd565b91507f45524332303a207472616e736665722066726f6d20746865207a65726f20616460008301527f64726573730000000000000000000000000000000000000000000000000000006020830152604082019050919050565b60006113426024836115dd565b91507f45524332303a20617070726f76652066726f6d20746865207a65726f2061646460008301527f72657373000000000000000000000000000000000000000000000000000000006020830152604082019050919050565b60006113a86025836115dd565b91507f45524332303a2064656372656173656420616c6c6f77616e63652062656c6f7760008301527f207a65726f0000000000000000000000000000000000000000000000000000006020830152604082019050919050565b61140a816116b6565b82525050565b611419816116c0565b82525050565b60006020820190506114346000830184610fbd565b92915050565b600060208201905081810360008301526114548184610fcc565b905092915050565b6000602082019050818103600083015261147581611005565b9050919050565b600060208201905081810360008301526114958161106b565b9050919050565b600060208201905081810360008301526114b5816110d1565b9050919050565b600060208201905081810360008301526114d581611137565b9050919050565b600060208201905081810360008301526114f58161119d565b9050919050565b6000602082019050818103600083015261151581611203565b9050919050565b6000602082019050818103600083015261153581611269565b9050919050565b60006020820190508181036000830152611555816112cf565b9050919050565b6000602082019050818103600083015261157581611335565b9050919050565b600060208201905081810360008301526115958161139b565b9050919050565b60006020820190506115b16000830184611401565b92915050565b60006020820190506115cc6000830184611410565b92915050565b600081519050919050565b600082825260208201905092915050565b60006115f9826116b6565b9150611604836116b6565b9250827fffffffffffffffffffffffffffffffffffffffffffffffffffffffffffffffff0382111561163957611638611732565b5b828201905092915050565b600061164f826116b6565b915061165a836116b6565b92508282101561166d5761166c611732565b5b828203905092915050565b600061168382611696565b9050919050565b60008115159050919050565b600073ffffffffffffffffffffffffffffffffffffffff82169050919050565b6000819050919050565b600060ff82169050919050565b60005b838110156116eb5780820151818401526020810190506116d0565b838111156116fa576000848401525b50505050565b6000600282049050600182168061171857607f821691505b6020821081141561172c5761172b611761565b5b50919050565b7f4e487b7100000000000000000000000000000000000000000000000000000000600052601160045260246000fd5b7f4e487b7100000000000000000000000000000000000000000000000000000000600052602260045260246000fd5b6000601f19601f8301169050919050565b6117aa81611678565b81146117b557600080fd5b50565b6117c1816116b6565b81146117cc57600080fd5b5056fea26469706673582212208bbb476d73c179020e13f5216ba5fea9045bfa7f721e0b720950bd4e10f3337664736f6c63430008000033"

var Bin = "60806040523480156200001157600080fd5b506040518060400160405280600581526020017f4172656e610000000000000000000000000000000000000000000000000000008152506040518060400160405280600581526020017f4152454e410000000000000000000000000000000000000000000000000000008152506012600a6200008e91906200044d565b64174876e800620000a091906200058a565b3383838160039080519060200190620000bb9291906200025d565b508060049080519060200190620000d49291906200025d565b505050620000e98183620000f360201b60201c565b50505050620006bf565b600073ffffffffffffffffffffffffffffffffffffffff168273ffffffffffffffffffffffffffffffffffffffff16141562000166576040517f08c379a00000000000000000000000000000000000000000000000000000000081526004016200015d9062000345565b60405180910390fd5b6200017a600083836200025860201b60201c565b80600260008282546200018e919062000395565b92505081905550806000808473ffffffffffffffffffffffffffffffffffffffff1673ffffffffffffffffffffffffffffffffffffffff1681526020019081526020016000206000828254620001e5919062000395565b925050819055508173ffffffffffffffffffffffffffffffffffffffff16600073ffffffffffffffffffffffffffffffffffffffff167fddf252ad1be2c89b69c2b068fc378daa952ba7f163c4a11628f55a4df523b3ef836040516200024c919062000367565b60405180910390a35050565b505050565b8280546200026b90620005f5565b90600052602060002090601f0160209004810192826200028f5760008555620002db565b82601f10620002aa57805160ff1916838001178555620002db565b82800160010185558215620002db579182015b82811115620002da578251825591602001919060010190620002bd565b5b509050620002ea9190620002ee565b5090565b5b8082111562000309576000816000905550600101620002ef565b5090565b60006200031c601f8362000384565b9150620003298262000696565b602082019050919050565b6200033f81620005eb565b82525050565b6000602082019050818103600083015262000360816200030d565b9050919050565b60006020820190506200037e600083018462000334565b92915050565b600082825260208201905092915050565b6000620003a282620005eb565b9150620003af83620005eb565b9250827fffffffffffffffffffffffffffffffffffffffffffffffffffffffffffffffff03821115620003e757620003e66200062b565b5b828201905092915050565b6000808291508390505b600185111562000444578086048111156200041c576200041b6200062b565b5b60018516156200042c5780820291505b80810290506200043c8562000689565b9450620003fc565b94509492505050565b60006200045a82620005eb565b91506200046783620005eb565b9250620004967fffffffffffffffffffffffffffffffffffffffffffffffffffffffffffffffff84846200049e565b905092915050565b600082620004b0576001905062000583565b81620004c0576000905062000583565b8160018114620004d95760028114620004e4576200051a565b600191505062000583565b60ff841115620004f957620004f86200062b565b5b8360020a9150848211156200051357620005126200062b565b5b5062000583565b5060208310610133831016604e8410600b8410161715620005545782820a9050838111156200054e576200054d6200062b565b5b62000583565b620005638484846001620003f2565b925090508184048111156200057d576200057c6200062b565b5b81810290505b9392505050565b60006200059782620005eb565b9150620005a483620005eb565b9250817fffffffffffffffffffffffffffffffffffffffffffffffffffffffffffffffff0483118215151615620005e057620005df6200062b565b5b828202905092915050565b6000819050919050565b600060028204905060018216806200060e57607f821691505b602082108114156200062557620006246200065a565b5b50919050565b7f4e487b7100000000000000000000000000000000000000000000000000000000600052601160045260246000fd5b7f4e487b7100000000000000000000000000000000000000000000000000000000600052602260045260246000fd5b60008160011c9050919050565b7f45524332303a206d696e7420746f20746865207a65726f206164647265737300600082015250565b61187d80620006cf6000396000f3fe608060405234801561001057600080fd5b50600436106100cf5760003560e01c806342966c681161008c57806395d89b411161006657806395d89b4114610226578063a457c2d714610244578063a9059cbb14610274578063dd62ed3e146102a4576100cf565b806342966c68146101be57806370a08231146101da57806379cc67901461020a576100cf565b806306fdde03146100d4578063095ea7b3146100f257806318160ddd1461012257806323b872dd14610140578063313ce56714610170578063395093511461018e575b600080fd5b6100dc6102d4565b6040516100e9919061119c565b60405180910390f35b61010c60048036038101906101079190610f58565b610366565b6040516101199190611181565b60405180910390f35b61012a610384565b60405161013791906112fe565b60405180910390f35b61015a60048036038101906101559190610f09565b61038e565b6040516101679190611181565b60405180910390f35b61017861048f565b6040516101859190611319565b60405180910390f35b6101a860048036038101906101a39190610f58565b610498565b6040516101b59190611181565b60405180910390f35b6101d860048036038101906101d39190610f94565b610544565b005b6101f460048036038101906101ef9190610ea4565b610558565b60405161020191906112fe565b60405180910390f35b610224600480360381019061021f9190610f58565b6105a0565b005b61022e610624565b60405161023b919061119c565b60405180910390f35b61025e60048036038101906102599190610f58565b6106b6565b60405161026b9190611181565b60405180910390f35b61028e60048036038101906102899190610f58565b6107aa565b60405161029b9190611181565b60405180910390f35b6102be60048036038101906102b99190610ecd565b6107c8565b6040516102cb91906112fe565b60405180910390f35b6060600380546102e390611462565b80601f016020809104026020016040519081016040528092919081815260200182805461030f90611462565b801561035c5780601f106103315761010080835404028352916020019161035c565b820191906000526020600020905b81548152906001019060200180831161033f57829003601f168201915b5050505050905090565b600061037a61037361084f565b8484610857565b6001905092915050565b6000600254905090565b600061039b848484610a22565b6000600160008673ffffffffffffffffffffffffffffffffffffffff1673ffffffffffffffffffffffffffffffffffffffff16815260200190815260200160002060006103e661084f565b73ffffffffffffffffffffffffffffffffffffffff1673ffffffffffffffffffffffffffffffffffffffff16815260200190815260200160002054905082811015610466576040517f08c379a000000000000000000000000000000000000000000000000000000000815260040161045d9061123e565b60405180910390fd5b6104838561047261084f565b858461047e91906113a6565b610857565b60019150509392505050565b60006012905090565b600061053a6104a561084f565b8484600160006104b361084f565b73ffffffffffffffffffffffffffffffffffffffff1673ffffffffffffffffffffffffffffffffffffffff16815260200190815260200160002060008873ffffffffffffffffffffffffffffffffffffffff1673ffffffffffffffffffffffffffffffffffffffff168152602001908152602001600020546105359190611350565b610857565b6001905092915050565b61055561054f61084f565b82610ca1565b50565b60008060008373ffffffffffffffffffffffffffffffffffffffff1673ffffffffffffffffffffffffffffffffffffffff168152602001908152602001600020549050919050565b60006105b3836105ae61084f565b6107c8565b9050818110156105f8576040517f08c379a00000000000000000000000000000000000000000000000000000000081526004016105ef9061125e565b60405180910390fd5b6106158361060461084f565b848461061091906113a6565b610857565b61061f8383610ca1565b505050565b60606004805461063390611462565b80601f016020809104026020016040519081016040528092919081815260200182805461065f90611462565b80156106ac5780601f10610681576101008083540402835291602001916106ac565b820191906000526020600020905b81548152906001019060200180831161068f57829003601f168201915b5050505050905090565b600080600160006106c561084f565b73ffffffffffffffffffffffffffffffffffffffff1673ffffffffffffffffffffffffffffffffffffffff16815260200190815260200160002060008573ffffffffffffffffffffffffffffffffffffffff1673ffffffffffffffffffffffffffffffffffffffff16815260200190815260200160002054905082811015610782576040517f08c379a0000000000000000000000000000000000000000000000000000000008152600401610779906112de565b60405180910390fd5b61079f61078d61084f565b85858461079a91906113a6565b610857565b600191505092915050565b60006107be6107b761084f565b8484610a22565b6001905092915050565b6000600160008473ffffffffffffffffffffffffffffffffffffffff1673ffffffffffffffffffffffffffffffffffffffff16815260200190815260200160002060008373ffffffffffffffffffffffffffffffffffffffff1673ffffffffffffffffffffffffffffffffffffffff16815260200190815260200160002054905092915050565b600033905090565b600073ffffffffffffffffffffffffffffffffffffffff168373ffffffffffffffffffffffffffffffffffffffff1614156108c7576040517f08c379a00000000000000000000000000000000000000000000000000000000081526004016108be906112be565b60405180910390fd5b600073ffffffffffffffffffffffffffffffffffffffff168273ffffffffffffffffffffffffffffffffffffffff161415610937576040517f08c379a000000000000000000000000000000000000000000000000000000000815260040161092e906111fe565b60405180910390fd5b80600160008573ffffffffffffffffffffffffffffffffffffffff1673ffffffffffffffffffffffffffffffffffffffff16815260200190815260200160002060008473ffffffffffffffffffffffffffffffffffffffff1673ffffffffffffffffffffffffffffffffffffffff168152602001908152602001600020819055508173ffffffffffffffffffffffffffffffffffffffff168373ffffffffffffffffffffffffffffffffffffffff167f8c5be1e5ebec7d5bd14f71427d1e84f3dd0314c0f7b2291e5b200ac8c7c3b92583604051610a1591906112fe565b60405180910390a3505050565b600073ffffffffffffffffffffffffffffffffffffffff168373ffffffffffffffffffffffffffffffffffffffff161415610a92576040517f08c379a0000000000000000000000000000000000000000000000000000000008152600401610a899061129e565b60405180910390fd5b600073ffffffffffffffffffffffffffffffffffffffff168273ffffffffffffffffffffffffffffffffffffffff161415610b02576040517f08c379a0000000000000000000000000000000000000000000000000000000008152600401610af9906111be565b60405180910390fd5b610b0d838383610e75565b60008060008573ffffffffffffffffffffffffffffffffffffffff1673ffffffffffffffffffffffffffffffffffffffff16815260200190815260200160002054905081811015610b93576040517f08c379a0000000000000000000000000000000000000000000000000000000008152600401610b8a9061121e565b60405180910390fd5b8181610b9f91906113a6565b6000808673ffffffffffffffffffffffffffffffffffffffff1673ffffffffffffffffffffffffffffffffffffffff16815260200190815260200160002081905550816000808573ffffffffffffffffffffffffffffffffffffffff1673ffffffffffffffffffffffffffffffffffffffff1681526020019081526020016000206000828254610c2f9190611350565b925050819055508273ffffffffffffffffffffffffffffffffffffffff168473ffffffffffffffffffffffffffffffffffffffff167fddf252ad1be2c89b69c2b068fc378daa952ba7f163c4a11628f55a4df523b3ef84604051610c9391906112fe565b60405180910390a350505050565b600073ffffffffffffffffffffffffffffffffffffffff168273ffffffffffffffffffffffffffffffffffffffff161415610d11576040517f08c379a0000000000000000000000000000000000000000000000000000000008152600401610d089061127e565b60405180910390fd5b610d1d82600083610e75565b60008060008473ffffffffffffffffffffffffffffffffffffffff1673ffffffffffffffffffffffffffffffffffffffff16815260200190815260200160002054905081811015610da3576040517f08c379a0000000000000000000000000000000000000000000000000000000008152600401610d9a906111de565b60405180910390fd5b8181610daf91906113a6565b6000808573ffffffffffffffffffffffffffffffffffffffff1673ffffffffffffffffffffffffffffffffffffffff168152602001908152602001600020819055508160026000828254610e0391906113a6565b92505081905550600073ffffffffffffffffffffffffffffffffffffffff168373ffffffffffffffffffffffffffffffffffffffff167fddf252ad1be2c89b69c2b068fc378daa952ba7f163c4a11628f55a4df523b3ef84604051610e6891906112fe565b60405180910390a3505050565b505050565b600081359050610e8981611819565b92915050565b600081359050610e9e81611830565b92915050565b600060208284031215610eb657600080fd5b6000610ec484828501610e7a565b91505092915050565b60008060408385031215610ee057600080fd5b6000610eee85828601610e7a565b9250506020610eff85828601610e7a565b9150509250929050565b600080600060608486031215610f1e57600080fd5b6000610f2c86828701610e7a565b9350506020610f3d86828701610e7a565b9250506040610f4e86828701610e8f565b9150509250925092565b60008060408385031215610f6b57600080fd5b6000610f7985828601610e7a565b9250506020610f8a85828601610e8f565b9150509250929050565b600060208284031215610fa657600080fd5b6000610fb484828501610e8f565b91505092915050565b610fc6816113ec565b82525050565b6000610fd782611334565b610fe1818561133f565b9350610ff181856020860161142f565b610ffa816114f2565b840191505092915050565b600061101260238361133f565b915061101d82611503565b604082019050919050565b600061103560228361133f565b915061104082611552565b604082019050919050565b600061105860228361133f565b9150611063826115a1565b604082019050919050565b600061107b60268361133f565b9150611086826115f0565b604082019050919050565b600061109e60288361133f565b91506110a98261163f565b604082019050919050565b60006110c160248361133f565b91506110cc8261168e565b604082019050919050565b60006110e460218361133f565b91506110ef826116dd565b604082019050919050565b600061110760258361133f565b91506111128261172c565b604082019050919050565b600061112a60248361133f565b91506111358261177b565b604082019050919050565b600061114d60258361133f565b9150611158826117ca565b604082019050919050565b61116c81611418565b82525050565b61117b81611422565b82525050565b60006020820190506111966000830184610fbd565b92915050565b600060208201905081810360008301526111b68184610fcc565b905092915050565b600060208201905081810360008301526111d781611005565b9050919050565b600060208201905081810360008301526111f781611028565b9050919050565b600060208201905081810360008301526112178161104b565b9050919050565b600060208201905081810360008301526112378161106e565b9050919050565b6000602082019050818103600083015261125781611091565b9050919050565b60006020820190508181036000830152611277816110b4565b9050919050565b60006020820190508181036000830152611297816110d7565b9050919050565b600060208201905081810360008301526112b7816110fa565b9050919050565b600060208201905081810360008301526112d78161111d565b9050919050565b600060208201905081810360008301526112f781611140565b9050919050565b60006020820190506113136000830184611163565b92915050565b600060208201905061132e6000830184611172565b92915050565b600081519050919050565b600082825260208201905092915050565b600061135b82611418565b915061136683611418565b9250827fffffffffffffffffffffffffffffffffffffffffffffffffffffffffffffffff0382111561139b5761139a611494565b5b828201905092915050565b60006113b182611418565b91506113bc83611418565b9250828210156113cf576113ce611494565b5b828203905092915050565b60006113e5826113f8565b9050919050565b60008115159050919050565b600073ffffffffffffffffffffffffffffffffffffffff82169050919050565b6000819050919050565b600060ff82169050919050565b60005b8381101561144d578082015181840152602081019050611432565b8381111561145c576000848401525b50505050565b6000600282049050600182168061147a57607f821691505b6020821081141561148e5761148d6114c3565b5b50919050565b7f4e487b7100000000000000000000000000000000000000000000000000000000600052601160045260246000fd5b7f4e487b7100000000000000000000000000000000000000000000000000000000600052602260045260246000fd5b6000601f19601f8301169050919050565b7f45524332303a207472616e7366657220746f20746865207a65726f206164647260008201527f6573730000000000000000000000000000000000000000000000000000000000602082015250565b7f45524332303a206275726e20616d6f756e7420657863656564732062616c616e60008201527f6365000000000000000000000000000000000000000000000000000000000000602082015250565b7f45524332303a20617070726f766520746f20746865207a65726f20616464726560008201527f7373000000000000000000000000000000000000000000000000000000000000602082015250565b7f45524332303a207472616e7366657220616d6f756e742065786365656473206260008201527f616c616e63650000000000000000000000000000000000000000000000000000602082015250565b7f45524332303a207472616e7366657220616d6f756e742065786365656473206160008201527f6c6c6f77616e6365000000000000000000000000000000000000000000000000602082015250565b7f45524332303a206275726e20616d6f756e74206578636565647320616c6c6f7760008201527f616e636500000000000000000000000000000000000000000000000000000000602082015250565b7f45524332303a206275726e2066726f6d20746865207a65726f2061646472657360008201527f7300000000000000000000000000000000000000000000000000000000000000602082015250565b7f45524332303a207472616e736665722066726f6d20746865207a65726f20616460008201527f6472657373000000000000000000000000000000000000000000000000000000602082015250565b7f45524332303a20617070726f76652066726f6d20746865207a65726f2061646460008201527f7265737300000000000000000000000000000000000000000000000000000000602082015250565b7f45524332303a2064656372656173656420616c6c6f77616e63652062656c6f7760008201527f207a65726f000000000000000000000000000000000000000000000000000000602082015250565b611822816113da565b811461182d57600080fd5b50565b61183981611418565b811461184457600080fd5b5056fea2646970667358221220c5ab2ac7a209bf506b67f8ff6bcd13e87d9db5e30cd58ed3fb66904d958d4b4564736f6c63430008010033"

func TestDeploy(t *testing.T) {
	//	"father girl private toss marriage decline ignore rigid fiscal wide action dawn"
	//	"0xb422a006a30a3b3b21382f8fc169579e1a2feb40"

	/*
		kk.WipeDevice()
		randbuf := make([]byte, 32)
		rand.Read(randbuf)
		kk.ResetDevice(Entropy128, randbuf, true, false, false, "testarena", 4)
	*/
	/*
		kk.WipeDevice()
		words := "myth like bonus scare over problem client lizard pioneer submit female collect"
		if err := kk.LoadDevice(strings.Split(words, " "), "", "", false, true); err != nil {
			t.Error("Unable to load device from seed words", err)
		}

	*/
	addr, err := kk.EthereumGetAddress(ethPath, true)
	if err != nil {
		log.Fatalf("checking address: %v", err)
	}
	fmt.Printf("Addr: 0x%s\n", hex.EncodeToString(addr))

	var nonce uint64 = 1
	//recipient := "0x6b67c94fc31510707f9c0f1281aad5ec9a2eeff0"

	//client, err := ethclient.Dial("https://rpc.slock.it/goerli")
	//client, err := ethclient.Dial("https://services.fault.dev/")
	client, err := ethclient.Dial("https://rpc.goerli.mudit.blog/")
	//client, err := ethclient.Dial("https://www.ethercluster.com/goerli")
	if err != nil {
		log.Fatalf("dialing: %v", err)
	}
	fmt.Println(client)

	/*
		gasPrice, err := client.SuggestGasPrice(context.Background())
		if err != nil {
			log.Fatalf("SuggestGasPrice: %v", err)
		}
	*/
	//gasPrice := big.NewInt(557142857143)
	gasPrice := big.NewInt(550000000000)
	// 800000000000

	//t.Fatalf("GasPrice: %s", gasPrice)

	recipient := ""
	amount := big.NewInt(0)
	gasLimit := big.NewInt(1700000)
	//			500000000000
	//gasPrice := big.NewInt(22000000000)
	data, _ := hex.DecodeString(Bin)
	tx := NewTransaction(nonce, recipient, amount, gasLimit, gasPrice, data)

	tx, err = kk.EthereumSignTx(ethPath, tx)
	if err != nil {
		t.Errorf("Unable to sign tx: %s", err)
	}
	//fmt.Printf("%+v\n", tx)
	sig := append(tx.R, append(tx.S, append([]byte{0})...)...)
	fmt.Printf("SIG: %v\n", sig)

	//client, err := ethclient.Dial("http://localhost:8545")

	rawTx := types.NewContractCreation(nonce, amount, 1700000, gasPrice, data)
	//signer := types.HomesteadSigner{}
	signer := types.NewEIP155Signer(big.NewInt(5))
	signedTx, err := rawTx.WithSignature(signer, sig)
	if err != nil {
		log.Fatalf("Attaching signature: %v", err)
	}
	fmt.Printf("signed: %+v\n", signedTx)
	fmt.Printf("chainID: %v\n", signedTx.ChainId())
	fmt.Printf("Gas: %v\n", signedTx.Gas())
	fmt.Printf("GasPrice: %v\n", signedTx.GasPrice())
	fmt.Printf("Value: %v\n", signedTx.Value())
	fmt.Printf("Nonce: %v\n", signedTx.Nonce())
	fmt.Printf("To: %v\n", signedTx.To())
	fmt.Printf("Cost: %v\n", signedTx.Cost())
	v, r, s := signedTx.RawSignatureValues()
	fmt.Printf("V: %s\n", hex.EncodeToString(v.Bytes()))
	fmt.Printf("R: %s\n", hex.EncodeToString(r.Bytes()))
	fmt.Printf("S: %s\n", hex.EncodeToString(s.Bytes()))

	sender, err := signer.Sender(signedTx)
	if err != nil {
		log.Fatalf("recovering sender: %v", err)
	}
	fmt.Printf("Sender: %v\n", sender)
	if sender.Hex() != "0xB422A006a30A3B3b21382f8fc169579e1a2feb40" {
		log.Fatalf("Wrong sender: Expected %s, got %s", "0xB422A006a30A3B3b21382f8fc169579e1a2feb40", sender.Hex())
	}

	rawbuf, err := signedTx.MarshalBinary()
	if err != nil {
		log.Fatalf("Encoding rawTX: %v", err)
	}
	fmt.Printf("Raw: %s", hex.EncodeToString(rawbuf))

	/*
		err = client.SendTransaction(context.Background(), signedTx)
		if err != nil {
			log.Fatalf("Sending Tx: %v", err)
		}
		fmt.Println(client)
	*/

}

func TestSignEthTx(t *testing.T) {

	kk.WipeDevice()
	words := "zoo zoo zoo zoo zoo zoo zoo zoo zoo zoo zoo wrong"
	if err := kk.LoadDevice(strings.Split(words, " "), "", "", false, true); err != nil {
		t.Error("Unable to load device from seed words", err)
	}

	var nonce uint64 = 20
	recipient := "0x6b67c94fc31510707f9c0f1281aad5ec9a2eeff0"
	amount := big.NewInt(1337)
	gasLimit := big.NewInt(80000)
	gasPrice := big.NewInt(22000000000)
	data := []byte{}
	tx := NewTransaction(nonce, recipient, amount, gasLimit, gasPrice, data)

	tx, err := kk.EthereumSignTx(ethPath, tx)
	if err != nil {
		t.Errorf("Unable to sign tx: %s", err)
	}

	expectedSigV := "1b"
	expectedSigR := "98f67b760034d1b9237c3fc2212886dffb6bf04ea66e7a6d775ccabd1dcca2d6"
	expectedSigS := "3e3fd19e263a0bc1d05345f915a359d04ccd13296f80a0249a9d81697832533e"

	v := hex.EncodeToString([]byte{byte(tx.V)})
	r := hex.EncodeToString(tx.R)
	s := hex.EncodeToString(tx.S)

	if v != expectedSigV || r != expectedSigR || s != expectedSigS {
		t.Errorf("Incorrect Signature values, expected V: %s R: %s S: %s, got V: %s, R: %s, S:%s",
			expectedSigV, expectedSigR, expectedSigS, v, r, s)
	}
}

func TestToRawTransaction(t *testing.T) {

	var nonce uint64 = 20
	recipient := "0x6b67c94fc31510707f9c0f1281aad5ec9a2eeff0"
	amount := big.NewInt(1337)
	gasLimit := big.NewInt(80000)
	gasPrice := big.NewInt(22000000000)
	data := []byte{}
	tx := NewTransaction(nonce, recipient, amount, gasLimit, gasPrice, data)

	tx, err := kk.EthereumSignTx(ethPath, tx)
	if err != nil {
		t.Errorf("Unable to sign tx: %s", err)
	}

	raw, err := tx.ToRawTransaction()
	if err != nil {
		t.Error("Unable to convert to raw tx:", err)
	}

	expected := "0xf8671485051f4d5c0083013880946b67c94fc31510707f9c0f1281aad5ec9a2eeff0820539801ba098f67b760034d1b9237c3fc2212886dffb6bf04ea66e7a6d775ccabd1dcca2d6a03e3fd19e263a0bc1d05345f915a359d04ccd13296f80a0249a9d81697832533e"

	if raw != expected {
		t.Errorf("Incorrect raw tx, expected: %s, got: %s", expected, raw)
	}
}

func TestNewTransaction(t *testing.T) {

	var nonce uint64 = 20
	recipient := "0x6b67c94fc31510707f9c0f1281aad5ec9a2eeff0"
	amount := big.NewInt(1337)
	gasLimit := big.NewInt(80000)
	gasPrice := big.NewInt(21000000000)
	data := []byte{}
	tx := NewTransaction(nonce, recipient, amount, gasLimit, gasPrice, data)

	if tx.Nonce != nonce || tx.Recipient != recipient || tx.Amount.String() != "1337" ||
		tx.GasLimit.String() != "80000" || tx.GasPrice.String() != "21000000000" || len(data) > 0 {
		t.Errorf("Incorrect transaction created: %v", tx)
	}
}
